:100000000C941D030C9464030C9464030C9464031B
:100010000C9464030C9464030C9464030C946403C4
:100020000C9464030C9464030C942B290C94FF2906
:100030000C949F230C9464030C9464030C94640349
:100040000C9464030C9464030C9464030C94640394
:100050000C9464030C94F6230C9464030C946403D2
:100060000C9464030C9464030C9464030C94640374
:100070000C9464030C9464030C9464030C94640364
:100080000C9464030C9464030C9464030C94640354
:100090000C9464030C9464030C9464030C94640344
:1000A0000C9464030C9464030C9464032900000012
:1000B0003A003B003C003D003E003F004000410054
:1000C0004200430044004500460047004800350018
:1000D0001E001F0020002100220023002400250014
:1000E000260027002D002E002A0049004A004B0060
:1000F0002B0014001A000800150017001C0018003F
:100100000C00120013002F00300031004C004D0095
:100110004E00390004001600070009000A000B0019
:100120000D000E000F0033003400000028002C00EA
:1001300000000000E1002C001D001B00060019005B
:10014000050011001000360037003800E5002C00D3
:10015000000052000000E000E300E20000000000A8
:1001600000002C00000000000000E6000151E70044
:10017000E400500051004F00005C0000010001004D
:100180000100010001000100010001000100010067
:100190000100010001000100010001000100010057
:1001A0000100010001000100010001000100010047
:1001B0000100010001000100010001000100C25C1A
:1001C000C35CC55CC65CC75CC85CC95CCA5C01003A
:1001D0000100010001000100010001000100010017
:1001E0000100010001000100010001000100010007
:1001F00001000100010000000100010000000000FA
:1002000001000100BF5CBD5CBE5CC05C0100010080
:1002100001000100010001000100010000000100D7
:1002200000000100010001000000000000000100CA
:1002300000000000000001000100010001000100B9
:100240000100010000000000000000002A2B28002F
:100250000000000000000000000000000000002975
:10026000000000002C1E3420212224342627252EB5
:10027000362D3738271E1F202122232425263333ED
:10028000362E37381F0405060708090A0B0C0D0E19
:100290000F101112131415161718191A1B1C1D2FE5
:1002A0003130232D350405060708090A0B0C0D0E05
:1002B0000F101112131415161718191A1B1C1D2FC5
:1002C0003130354C0000000000000000000000004C
:1002D00000000000000000007E0F00D4FFFFFFC7F9
:1002E0000000007832190A00047F3F1F6432146452
:1002F0003214783C1E1E140A052223252628292A9A
:100300002C2D2F3032333536383A3B3D3E40424378
:100310004547494A4C4E5051535557595A5C5E60B7
:1003200062646668696B6D6F71737577797B7D7FC9
:1003300081838587898A8C8E90929496989A9C9EC8
:100340009FA1A3A5A7A8AAACAEAFB1B3B4B6B8B9E4
:10035000BBBCBEBFC1C2C3C5C6C7C9CACBCCCDCE4C
:10036000D0D1D2D2D3D4D5D6D7D7D8D9D9DADADB2F
:10037000DBDBDCDCDCDCDCDDDDDDDDDCDCDCDCDCBB
:10038000DBDBDBDADAD9D9D8D7D7D6D5D4D3D2D2FA
:10039000D1D0CECDCCCBCAC9C7C6C5C3C2C1BFBEE2
:1003A000BCBBB9B8B6B4B3B1AFAEACAAA8A7A5A34D
:1003B000A19F9E9C9A98969492908E8C8A8987850C
:1003C00083817F7D7B79777573716F6D6B696866EB
:1003D0006462605E5C5A5957555351504E4C4A49BD
:1003E00047454342403E3D3B3A3836353332302F65
:1003F0002D2C2A292826252322FFAA7F55400001DB
:1004000001010101010101010202020202020202D4
:1004100002030303030303030304040404040404A6
:10042000050505050506060606060707070707086A
:10043000080808090909090A0A0A0B0B0B0C0C0C1D
:100440000D0D0D0E0E0E0F0F0F10101111111212B7
:1004500013131414151516161717181819191A1A34
:100460001B1B1C1D1D1E1E1F202021222223242495
:10047000252626272829292A2B2C2D2D2E2F3031D1
:100480003232333435363738393A3B3C3D3E3F40E3
:100490004142434445464748494A4C4D4E4F5051CE
:1004A0005354555658595A5B5D5E5F616264656688
:1004B00068696B6C6D6F7072737577787A7B7D7E0F
:1004C0008082838587888A8C8E8F91939596989A5F
:1004D0009C9EA0A2A3A5A7A9ABADAFB1B3B5B7BA77
:1004E000BCBEC0C2C4C6C9CBCDCFD1D4D6D8DBDD4B
:1004F000DFE2E4E7E9EBEEF0F3F5F8FAFDFF0403E1
:10050000300000001E0366006F0078006C00610080
:1005100062002000740069006D0065005F007200D9
:10052000320000000E0366006F0078006C0061006E
:10053000620000000403090409025B00030100A03B
:10054000FA09040000010301010009211101000161
:100550002240000705810308000A09040100020384
:100560000000000921110100012222000705820379
:100570002000010705030320000109040200010314
:100580000000000921110100012232000705840347
:1005900020000A1201100100000008786602000124
:1005A00000010203010660FF0961A1010962150053
:1005B00026FF009520750881020963150026FF00BB
:1005C000952075089102C005010980A101850319D4
:1005D000012AB700150126B700950175108100C0EA
:1005E000050C0901A101850419012AA002150126A3
:1005F000A002950175108100C005010906A1010541
:100600000719E029E7150025019508750181029574
:1006100001750881010507190029FF150026FF0053
:1006200095067508810005081901290595057501CC
:100630009102950175039101C00011241FBECFEFF7
:10064000DAE0DEBFCDBF04B603FE27C080911803F9
:1006500090911903A0911A03B0911B038730904B1E
:10066000A740B04BD1F410921803109219031092C6
:100670001A0310921B0314BE84B7877F84BF0FB682
:10068000F894A89580916000886180936000109232
:1006900060000FBEE0E0F8E3099511E0A0E0B1E0F2
:1006A000E8E0FBE502C005900D92A83DB107D9F73F
:1006B00023E0A8EDB1E001C01D92A831B207E1F737
:1006C0000E94F0250C94332D0C9400006E9A0C942B
:1006D0004A070C944B070C94760381FF03C076986D
:1006E0000C944B05769AFCCF81E0089581E0089543
:1006F00008950C9478031F93CF93DF9300D000D01C
:100700000F92CDB7DEB749835A836B8330912302B2
:1007100089819A8131111DC06623B9F02223A9F085
:100720000E94DF20182F682F89819A810E948B20D8
:1007300069817A81812F0F900F900F900F900F9009
:10074000DF91CF911F910C949D140E94B720182F18
:10075000EFCF0E94DF2069817A81EDCFFC01262F47
:10076000408151816281738184810C947B03CF939A
:10077000DF93EC0160E00E94AE03BE01DF91CF91F8
:100780000C947903FF920F931F93CF93DF93E82F7D
:10079000F0E0EC5BFD4FF490C82FC695C695C6956A
:1007A000D0E0FE01EC52FD4F0491877010E0082E5E
:1007B00002C0159507950A94E2F701701127CC53F2
:1007C000DD4FFE01C491D0E002C0D595C7958A9552
:1007D000E2F7C170DD270115110519F081EE0E94C5
:1007E0000419209719F086EE0E9404198F2D0E949B
:1007F0007219CD2B19F086EE0E944A19012B41F097
:1008000081EEDF91CF911F910F91FF900C944A19C7
:10081000DF91CF911F910F91FF900895EF92FF927A
:100820000F931F93CF93DF93EC01162F0AE088817B
:10083000882309F454C0813009F04EC08981813089
:1008400099F47E0122E0E20EF11C8A810E94721965
:10085000E7012196812F815050F3EFE9FFE03197B6
:10086000F1F700C00000F7CF823041F47E0182E052
:10087000E80EF11C8A810E940419EACF833041F40A
:100880007E01E2E0EE0EF11C8A810E944A19E0CF5F
:10089000843011F02196DDCF2A81229690E080E00D
:1008A000AE014F5F5F4F2053330B2A30310548F0C4
:1008B000019778F2EFE9FFE03197F1F700C000000F
:1008C000F7CF089FB001099F700D1124C901860F51
:1008D000971F2981EA01E4CF0E94C203BACFDF91BA
:1008E000CF911F910F91FF90EF90089560E00C94CD
:1008F0000E048F929F92AF92BF92CF92DF92EF92AF
:10090000FF920F931F936B017C0181E090E0A0E0C8
:10091000B0E04C015D0104C0880C991CAA1CBB1CF2
:100920004A95D2F7B501A4014C015D0104C0880CC1
:10093000991CAA1CBB1C2A95D2F7482959296A2957
:100940007B2904C0880F991FAA1FBB1F0A95D2F7E5
:100950008A019B010C211D212E213F21041715071F
:100960002607370789F48C299D29AE29BF29BC01A8
:10097000CD011F910F91FF90EF90DF90CF90BF902E
:10098000AF909F908F90089580959095A095B09589
:100990008C219D21AE21BF21EACF0F93382F262F26
:1009A00060919D0270919E0280919F029091A002A1
:1009B000042F432F0E9479040F910C94C91F0E94A9
:1009C00040240E942922811102C00E94CF220E944D
:1009D000AB110C9466030C94690308950E94F21BFA
:1009E0000E94ED042FEF84E39CE021508040904072
:1009F000E1F700C000000C941A240F931F93CF93CB
:100A0000DF93EC0161E00E94AE038C01BE010E9405
:100A10003E128823B9F1BE01C8010E946B038823EE
:100A200089F1BE01C8010E941711882359F1BE0146
:100A3000C8010E94F115882329F1BE01C8010E9456
:100A400043168823F9F0BE01C8010E946617882367
:100A5000C9F0BE01C8010E94D40F882399F08A8191
:100A6000882339F001158CE5180751F00E3D1C451F
:100A700079F0CE01DF91CF911F910F910C94740307
:100A80000E94EE0480E0DF91CF911F910F910895B5
:100A90000E94CF22F7CF089581E008950C944C0571
:100AA000CF93C82F0E946D038C2FCF910C944E05CD
:100AB00090E080E008950895FC01EE0FFF1FEC51D7
:100AC000FD4F859194910895CF93DF930E949D14DB
:100AD0000E947006EC01811520E5920708F041C0E4
:100AE000811530E4930708F0B4C0803E910518F5F5
:100AF000803C910508F09DC0883A910570F4853AD4
:100B0000910508F08EC081309105F9F00097E9F069
:100B10000497D8F4D0E0C0E018C08F3B9105D0F71F
:100B2000C85AD0E0CC0FDD1FCC5DDE4F0990D881D4
:100B3000C02DD4640AC08115904258F4C11581E0DB
:100B4000D80718F4C83ED10528F7CE01DF91CF9120
:100B50000895C11590E3D90708F071C0CE019F70C8
:100B60006AC0811525E5920758F5811534E593078C
:100B700008F09EC0811542E5940750F4C11581E547
:100B8000D80708F469C0DC2FCC27C16FD06ADDCF4D
:100B9000982F969596959E0123703327C115D345BE
:100BA00008F077C0C1E0D0E002C0CC0FDD1F2A956D
:100BB000E2F720E2929FC0011124C82BD92B67C015
:100BC000C11589E5D807A8F4C11598E5D90708F03B
:100BD00074C0C11526E5D20708F09CCF8C2F0E9467
:100BE0000707C82FD0E0DC2FCC27CC27DF71D062DD
:100BF000ACCFC1153AE5D30708F464C0CE019056D6
:100C00008115904208F086CF8D2F8F710E940707C3
:100C100090E0982F882788279F719C012C2BE90151
:100C2000E6CFC55AD0E0CE5ADE4FC881D0E0D064BE
:100C30008CCF805C91090E945C05EC0186CFCE01CF
:100C40009927D3FF03C0EC01D86C7FCFEC01D06CA7
:100C50007CCFDF70D06A79CFCE01E4E0969587959E
:100C6000EA95E1F783702C2F26952695237090E264
:100C7000299F90011124382B8C2F8370C1E0D0E084
:100C800002C0CC0FDD1F8A95E2F7C22BD32BDC68A4
:100C90005CCFC1E0D0E002C0CC0FDD1F2A95E2F7A7
:100CA00030E2939FC0011124C82BD92BDA684DCFB5
:100CB000D82FCC27C46FD06A48CFDC2FCC27C06F89
:100CC000D06A43CF8C2F8F700E94070734E0D695EF
:100CD000C7953A95E1F7CF709C2FEC01D06935CFDD
:100CE00082389105B1F1B0F48133910509F475C0F2
:100CF00048F48932910509F469C08A32910509F4F2
:100D000073C008958533910509F459C0893391055D
:100D100001F10895833E9105A9F138F4803E9105D3
:100D2000F9F0823E910549F10895863E9105A9F1B9
:100D3000873E9105C9F1843E910519F520910A037A
:100D400021FF1FC08091090384FD14C087EE90E04D
:100D50000895209109032370A1F080EE90E008959A
:100D60002091090320FD47C030910A0330FF09C0DC
:100D700024FF44C090E080E004C02091090322FDDC
:100D8000F7CF08952091090322FD3BC030910A035B
:100D900030FDE3CF24FFF5CFEDCF2091090323FFF2
:100DA000F0CF24FDE7CFD2CF2091090323FD2CC043
:100DB00030910A0331FFEECF84EE90E00895209148
:100DC000090325FFDECF89E290E008952091090311
:100DD00025FFD7CF85E390E008952091090326FFF2
:100DE000D0CF8AE290E008952091090326FFC9CF71
:100DF00081E390E0089589E390E0089583EE90E028
:100E0000089582EE90E0089586EE90E00895909126
:100E1000090392FF06C0282F28712830F9F4877F34
:100E2000846093FF06C0282F28712831F1F4877E53
:100E3000846120910A0320FF06C0382F38713830B2
:100E4000D9F4877F816021FF06C0282F28712831BF
:100E5000D1F4877E816194FD877E0895282F2471C7
:100E60002430F9F68B7F8860DCCF282F2471243161
:100E700001F78B7E8861DDCF382F3171313019F762
:100E80008E7F8860E0CF282F2171213121F78E7E5F
:100E90008861E1CF0895089594E0899FF0011124BD
:100EA000E852FD4F60817181828193810895089598
:100EB00080EA8A95F1F70895A6E6B1E061E070E076
:100EC0008D91E82FE295EF70F0E041A18F709B01CA
:100ED00001C0220F8A95EAF7922F9095942391A34F
:100EE00082A1822B82A381E0AC36B80749F7A5E541
:100EF000B1E061E070E08D91E82FE295EF70F0E0F5
:100F000041A18F709B0101C0220F8A95EAF7922FB1
:100F10009095942391A382A1822B82A381E0A6368F
:100F2000B80749F7E0ECF2E0A8EDB2E088ED92E016
:100F300011921192119211921D921D921D921D9269
:100F40008E179F07A9F786E00E944B080C94DF04D8
:100F50002F923F924F925F926F927F928F929F92C9
:100F6000AF92BF92CF92DF92EF92FF920F931F93B7
:100F7000CF93DF9336E6C32E31E0D32E40ECE42E40
:100F800042E0F42E10E088248394912CF6018191A4
:100F90006F01C82FC295CF70D0E099A18F70540116
:100FA00001C0AA0C8A95EAF7892F8A2989A38AA108
:100FB0000A2D009580238AA30E945807A5E5B1E079
:100FC00090E080E040E050E0BA012D90E22DE29503
:100FD000EF70F0E020A130E0E22DEF7002C0359517
:100FE0002795EA95E2F7412C512C320120FD0CC0E7
:100FF000412C512C32014394082E04C0440C551C42
:10100000661C771C0A94D2F744295529662977294A
:10101000019681319105C9F689A1082309A38AA106
:10102000A82AAAA2F70180819181A281B3814817E1
:1010300059076A077B0769F1408351836283738391
:1010400081E0182BF4E0EF0EF11C8CE6C81681E06D
:10105000D80609F09BCF212F46E068ED72E080ECC6
:1010600092E00E944C080E94EB04812FDF91CF9107
:101070001F910F91FF90EF90DF90CF90BF90AF90B6
:101080009F908F907F906F905F904F903F902F90A8
:10109000089580E0D6CF0895FF920F931F93CF93CA
:1010A000DF93F82ED92F8B01C42F222349F081E042
:1010B0008093DA010E94CF239093D9018093D801C5
:1010C0008091DA01882399F08091D8019091D9011B
:1010D0000E94E723069758F0EF2DFD2FD80190E0EE
:1010E00080E0D0E08C179D0744F01092DA01DF9188
:1010F000CF911F910F91FF9008950191119121912E
:1011000031910D931D932D933D930196EBCFEF926B
:10111000FF920F931F93CF93DF93EB01E82FD11131
:1011200010C0442321F0F0E0E250FC4FE4916E2F18
:101130007E2F8E2FDF91CF911F910F91FF90EF9017
:1011400008950D2F10E0282F30E0442329F022507D
:101150003C4FF901249130E0F6E0CF9FC00111240B
:10116000EFEFF0E0BF010E94DB2BAB018C2F90E092
:10117000880F991FA5E5A49FB001A59F700D1124AC
:10118000861B970B982F990F980FBF01601B710B4F
:10119000629FD001639FB00D729FB00D11248B2F01
:1011A0009D9FB0011124672F7727EF01C61BD70B36
:1011B000BE01629FE001639FD00D729FD00D11248C
:1011C0007F01E91AF108E09EB001E19E700DF09EEA
:1011D000700D1124672F7727E61BF70BE29F800124
:1011E000E39F100DF29F100D1124E12F722F42305A
:1011F000510599F048F44115510569F04130510508
:1012000081F0EB2F8D2F07C04430510569F080F03D
:1012100046305105B1F76E2F8DCFE22F7B2F812FF6
:10122000FACFE22F7D2FF7CFEB2F822F712FF3CF45
:101230007B2F822FED2FEFCF41E00C94870808958C
:10124000CF93DF93762FE901682F842F0E941C092A
:10125000798368838A83DF91CF910895493C08F0B0
:1012600048EC0C9420098091F002982F9E7F61F445
:10127000817082608093F0028091F302893C18F0C3
:1012800088EC8093F30208958635B0F3817084650D
:10129000F1CF88E090E00C94D42CCF92DF92EF92C3
:1012A000FF926B017C010E943309B701A60188E01F
:1012B00090E0FF90EF90DF90CF900C94F22C609133
:1012C000F0027091F1028091F2029091F3020C947D
:1012D0004D09E0EFF2E083E0808311828FEF82839B
:1012E00088EC8383148260817181828193810C9464
:1012F0004D098091F00280FF02C08695089580E03C
:1013000008959091F402933018F49F5F9093F40243
:10131000882351F06091F0027091F1028091F20205
:101320009091F3020C944D09089581E00C94810989
:101330009091F402992319F091509093F40288232C
:1013400051F06091F0027091F1028091F20290915F
:10135000F3020C944D09089581E00C949809809152
:10136000F40208958093F402662351F06091F00234
:101370007091F1028091F2029091F3020C944D0968
:10138000089560E00C94B2098091F1020895809173
:10139000F20208958091F302089570E00C94BB115D
:1013A000609108018091F00280FF0AC080910701DE
:1013B00023E0829FC00111248B509D4F0C94CD09D6
:1013C0008091090190910A0123E0829FF00111248C
:1013D000EB50FD4F891750F71182108212828F5FF8
:1013E0003396F8CF9091F00290FF14C090910901CC
:1013F00020910A0133E0939FF0011124EB50FD4F3F
:10140000921710F00C94D0098183608342839F5F10
:101410003396F6CF0895CF93DF9300D00F92CDB7D8
:10142000DEB79091F00290FF0AC09E012F5F3F4F00
:101430000E942E094B8169818A810E94F2090F90D6
:101440000F900F90DF91CF910895CF93DF93EC0130
:10145000EC81F0E0E750FD4F4491E0EFF2E0628173
:1014600081810E940B0A8C818F5F8C83DF91CF91E9
:101470000895CF93DF93EC01E0EFF2E043816281C6
:101480008C810E940B0A8C818F5F8C83DF91CF91BE
:1014900008950F931F93CF93DF9300D00F92CDB792
:1014A000DEB78C018091DB0181110AC09E012F5FA4
:1014B0003F4F48EC6FEF0E942E098A818093DB0139
:1014C000F8016481613069F08091DB0140E06623BE
:1014D00061F040E0623011F44091DB0180E060E0B7
:1014E00004C06091DB0140E080E00E94F209F80155
:1014F000848190E0019663E070E00E94EF2B84838A
:101500000F900F900F90DF91CF911F910F91089541
:10151000AF92BF92CF92DF92EF92FF920F931F9301
:10152000CF93DF9300D00F92CDB7DEB7182FF62EF2
:10153000042FE22E9091F00290FF29C0E92FE6954A
:10154000AE2FB0E0A459BE4F8C918093FE019E7FD8
:10155000923059F59E012F5F3F4F812F0E942E0937
:101560004B8169818A810E94F2091093F102F09205
:10157000F2020093F302EE2051F06091F0027091BC
:10158000F1028091F2029091F3020E944D090F90B6
:101590000F900F90DF91CF911F910F91FF90EF90DF
:1015A000DF90CF90BF90AF900895823019F40091F2
:1015B000F302DBCF863019F41091F102D6CF8930D7
:1015C000D9F3893191F6E9518E2F8170D82EE695A5
:1015D000F0E0E750FC4FA590B490C12CBB24609183
:1015E0000B01C61618F00E94D009BFCF2C2D30E099
:1015F000A29EC001A39E900DB29E900D112470E09A
:101600000E94DB2B812FD11013C0860F409109015E
:10161000420F532F511D9A01220F331F240F351FE4
:101620002B503D4F402F6F2D0E942E09C394D7CFD2
:10163000861BECCFE0EFF2E09181282F438162819D
:1016400088E0890F0C94880A81E00C941A0BE0EF73
:10165000F2E09181282F4381628188EF890F0C94F9
:10166000880A81E00C94270BE0EFF2E0628128E029
:10167000620F08F46FEF282F438181810C94880A50
:1016800081E00C94340BE0EFF2E0628128E0621B11
:1016900008F460E0282F438181810C94880A81E05E
:1016A0000C94430BE0EFF2E0438128E0420F08F492
:1016B0004FEF282F628181810C94880A81E00C947D
:1016C000520BE0EFF2E0438128E0421B08F440E0D7
:1016D000282F628181810C94880A81E00C94610B2F
:1016E00020E00C94880AEF92FF921F93CF93DF9330
:1016F000EC0110E0EE24EA94F12C60910B01161736
:1017000070F00E94D0099A818C8190FF27C08F5F72
:101710008C83DF91CF911F91FF90EF9008952091DE
:101720000901422F410F5527551FCA019A01220F67
:10173000331F280F391F2B503D4F70E0C7010E9407
:10174000EF2B962F8C814091F3026091F202199F4A
:10175000800D11240E942E091F5FCFCF8150D8CF5A
:10176000AF92BF92CF92DF92EF92FF920F931F93AF
:10177000CF93DF93FC0182810FEF80FF01E010E047
:1017800045E0A42E80910B011817C8F00E94D009E3
:101790008091DD01013009F055C0811102C08091B6
:1017A0000B0181508093DD01DF91CF911F910F914B
:1017B000FF90EF90DF90CF90BF90AF900895C091D1
:1017C0000901C12ED12CCC0DDD2DD11DCE01880FEC
:1017D000991FC80FD91FCB50DD4F198218821A826A
:1017E00034E0E32EF12CB12C8091DD018B0D86309D
:1017F0001CF16A2D0E94CD2B892F082E000C990B0D
:10180000C816D90691F48091F3028E9DA0018F9D98
:10181000500D112455954795559547959E0160911A
:10182000F2028091F1020E942E09B00EF1E0EF1A4F
:10183000F108D1F61F5FA6CF87FFDFCF90910B0194
:10184000890FDBCF90E0019660910B0170E00E9460
:10185000EF2BA8CF0F931F93CF93DF9380910901B4
:1018600090910A0123E0829FF0011124EB50FD4F7B
:10187000891740F1C0E0D3E060910B01C61740F139
:101880000E94D009209105018091DC01820F809394
:10189000DC0190910601920F90930601191654F401
:1018A000082E000C990B40910B014150550B8417E9
:1018B00095071CF0219520930501DF91CF911F9191
:1018C0000F9108951182108212828F5F3396D0CFCC
:1018D0000C2F10E070E0C8010E94EF2B209109014D
:1018E000820F482F50E02091DC01022E000C330BB8
:1018F00002171307BCF020910601022E000C330BD7
:10190000201731077CF08D9F900111242B503D4F03
:101910004091F3026091F2028091F1020E942E093F
:10192000CF5FAACFFA01EE0FFF1FE40FF51FEB50B8
:10193000FD4F118210821282F3CF8F929F92AF924D
:10194000BF92CF92DF92EF92FF920F931F93CF93AC
:10195000DF93EC014C81042F10E09801D8010E9424
:101960003A2C9B01AC010E94502C4B015C01E0E23F
:10197000F0E0E01BF10BA5E5B0E0AC019B010E949B
:10198000502C6B017C019F01DF010E94322C9B01D6
:10199000AC010E945B2C9B01AC01280D391D4A1D36
:1019A0005B1DC701B6010E94032CF22E822F90E02E
:1019B00039E23F1560F143E0249F900111243595F1
:1019C0002795122F109500E085E5E82EEF188091FD
:1019D0000B01081758F10E94D0099C8181E09923DE
:1019E00019F0903219F48FEF809304018091040173
:1019F000890F8C83DF91CF911F910F91FF90EF9012
:101A0000DF90CF90BF90AF909F908F90089525E585
:101A100030E0B901681B790B9B01220F331F260FA1
:101A2000371F37FFCCCF2F5F3F4FC9CF8E2D01FD22
:101A30008F2D20910901622F600F7727771F9B015F
:101A4000220F331F260F371F2B503D4F412F609120
:101A5000F2020E942E090F5FBACF0F931F93CF930C
:101A6000DF93EC0110E000E090910B01901711065C
:101A700009F06CF40E94D0098C8190E0019681708D
:101A800099278C83DF91CF911F910F910895209119
:101A90000901A801420F511D9A01220F331F240F83
:101AA000351F2B503D4F4C816091F2028091F10225
:101AB00096959017110651F04CF0442349F040914F
:101AC000F3020E942E090F5F1F4FCECF4423B9F3BC
:101AD00040E0F7CF8F929F92AF92BF92CF92DF926A
:101AE000EF92FF920F931F93CF93DF93FC01B2808D
:101AF000948081E0848300E015E05BE4A52E8824D7
:101B00008394EE24EA94F12C7BE4C72ED12C8091AF
:101B10000B01081770F0DF91CF911F910F91FF908B
:101B2000EF90DF90CF90BF90AF909F908F900C94EC
:101B3000D009C02FD0E01C9FF0011D9FF00D112493
:101B4000E252FE4F91101CC01382128220910901B3
:101B5000CE01820F911D9C01220F331F280F391FC8
:101B60002B503D4F1C9FF0011D9FF00D1124E252A0
:101B7000FE4F4281618180810E942E090F5FC7CF95
:101B80002381222379F12150238334818A2D821BE2
:101B9000311101C0822F1C9FF0011D9FF00D1124F7
:101BA000E252FE4F9091F302899FC0011124B601C9
:101BB0000E94DB2B6283211104C0332311F01482B5
:101BC000A38222E02B1510F21C9FF0011D9FF00D47
:101BD0001124E252FE4F8091F10280838091F20243
:101BE0008183B4CF0E94AF2C823091400CF0AECFF5
:101BF00082E08B1530F50E94AF2CB7010E94EF2BCD
:101C00001C9FF0011D9FF00D1124E252FE4F8083B6
:101C100022E02B15C8F40E94AF2C2091F2022695E9
:101C2000622F70E00E94EF2B280F1C9FF0011D9F78
:101C3000F00D1124E252FE4F21831282A38284828E
:101C400085CF8091F102DCCF2091F202EECFE0EF60
:101C5000F2E080818E7F80836081718182819381B7
:101C60000E944D091092FF012FEF80E792E0215072
:101C700080409040E1F700C000000C94D009E0EFF4
:101C8000F2E080818E7F80831092FF012FEF80E74A
:101C900092E0215080409040E1F700C000000C9499
:101CA000D0096091F002669570E04BE050E08CE066
:101CB00091E00E94BF2C892B19F481E08093FF01F1
:101CC0000E94CF239093F8018093F701089590919B
:101CD000F00290FF35C09170811128C092609093FE
:101CE000F002662351F06091F0027091F102809150
:101CF000F2029091F3020E944D096091F002669504
:101D000070E04BE050E08CE091E00E94BF2C892B0A
:101D1000A1F01092FF0181E08093FA014091F3025B
:101D20006091F2028091F1020C94700B8B3210F0F2
:101D30009465D5CF880F982BD2CF0E94510EEBCF50
:101D40000895682F9091F002969581E0890F8B326B
:101D500008F081E00C94670E81E00C94A10E682FCE
:101D60009091F00296958FEF890F09F48AE20C9416
:101D7000670E81E00C94AF0E61E00C94670EE0EF0B
:101D8000F2E080818160808386950C94BC0E809106
:101D9000F00280FD0C94270E0C94BF0E60E00C94B2
:101DA000670E8091FD0181112EC00E9429228111B0
:101DB00004C00E94CF220E9469090E9449096093D1
:101DC000F0027093F1028093F2029093F3026E7F1F
:101DD00061F40E9469090E9449096093F0027093BE
:101DE000F1028093F2029093F3020E943309109261
:101DF000FF018091F00280FF03C086950E94CE0E05
:101E000081E08093FD010895E0EFF2E08081816040
:101E1000808386950C94CE0E1092FF0108950F9347
:101E20001F93CF93DF938091FF01882309F49DC016
:101E30008091FE01E091F002E695E81BE093F90144
:101E40008230C9F5F0E0EB50FD4FE491CE2FD0E0A9
:101E500005E21AE08091FA01882389F01092FA01D4
:101E60000E94CF239E0120953095820F931F90935F
:101E7000F8018093F7011092FC011092FB01809110
:101E8000F7019091F8010E94E7238C179D0708F451
:101E90006CC0E091F701F091F801CE0FDF1FD093F5
:101EA000F801C093F70187EF91E0F801DF91CF913E
:101EB0001F910F910994863049F4F0E0EE50FD4FE8
:101EC000E491CE2FD0E009E31AE0C4CF893051F479
:101ED000E695F0E0E151FD4FE491CE2FD0E003E72D
:101EE0001BE0B8CF8F3051F4E695F0E0E451FD4FA0
:101EF000E491CE2FD0E000EB1BE0ACCF853149F46C
:101F0000F0E0E751FD4FE491CE2FD0E00AE21CE073
:101F1000A1CFC8E2D0E00DE91CE0883109F49ACFE6
:101F2000833239F4E7EEF2E0C591D49109E41AE086
:101F300091CFC4EFD1E00DE21DE0843209F48ACFE5
:101F4000C0EDD7E00FE119E0853209F083CF8E2F85
:101F500063E00E94C12BE92FF0E0EC51FD4FE491CA
:101F6000CE2FD0E00AE61DE075CFDF91CF911F9113
:101F70000F910895FA01811101C0FB010994CF93DB
:101F8000DF93C82FD62F0E9479098C1740F00E944A
:101F900079098D1720F4DF91CF910C94AC0E8C2F22
:101FA000DF91CF910C94BC0E0F931F93CF938C01B4
:101FB000FB01C281CC2309F465C00E9474218272A6
:101FC000F801E25CFC45E431F10538F4EB5CF24DDC
:101FD0000C94252C0E94C70EC0E08C2FCF911F912E
:101FE0000F91089549EB5EE06CEA7EE00E94BA0F23
:101FF000F3CF4CEA5EE069EB7EE0F8CF41E35BE0D3
:1020000064E27BE0F3CF44E25BE061E37BE0EECFB0
:102010004FE45BE060E47BE0E9CF40E45BE06FE449
:102020007BE0E4CF4DE65BE06EE57BE0DFCF4EE5A5
:102030005BE06DE67BE0DACF4CEA59E065E979E0F8
:10204000D5CF45E959E06CEA79E0D0CF81E00E9434
:10205000BC0EC2CF65E082E00E94BF0FBDCF68E03A
:1020600086E0FACF6EE089E0F7CF64E18FE0F4CF4D
:1020700067E185E1F1CF88E1EACF62E289E1ECCF67
:1020800083E2E5CFC1E0A9CF809104030C945B22E9
:102090008091040386958695869508950E9429224D
:1020A000811102C00E94CF220E9457228093040314
:1020B000803220F08770886180930403909104033C
:1020C000892F817090FF04C0892F8695869586950B
:1020D0000C944C1180910403982F969596959695A3
:1020E000933040F49F5F990F990F990F8770892B58
:1020F00080930403809104038160809304030E9411
:102100005B22809104038695869586950C944C11EC
:1021100080910403982F987F79F08850809304036E
:10212000887F91E009F490E08091040390FB80F9AE
:10213000809304030E945B22809104038695869518
:1021400086950C944C118091040380FD13C081602E
:1021500080930403813019F489E080930403809113
:1021600004030E945B2280910403869586958695E0
:102170000C944C1108958091040380FF08C08E7F59
:10218000809304030E945B2280E00C944C1108951C
:102190008091040380FD0C94BB100C94A3109091CB
:1021A0000403892F8695869586958F5F8F7197702A
:1021B0008430D8F4880F880F880F892B809304030C
:1021C00080910403887F91E009F490E080910403FA
:1021D00090FB80F9809304030E945B2280910403AA
:1021E0008695869586950C944C1190930403E8CFC0
:1021F000843008F083E0909104039770282F220F19
:10220000220F220F922B90930403987F21E009F470
:1022100020E09091040320FB90F9909304030C9428
:102220004C110E94F810809104030C945B229C01D5
:10223000FB018281882349F12D3BFCE53F07C9F072
:1022400040F42B3BECE53E0769F02C3B3C4579F034
:1022500008952F3B9CE5390791F070F0203C3C45F8
:1022600089F0089583E00E94111180E0089580E0D4
:10227000FACF0E948810F9CF0E946A10F6CF0E9410
:10228000C810F3CF0E94CF10F0CF81E00895279AB5
:102290002F9808952F980895CF92DF92EF92FF9292
:1022A000CF93C82F843040F5811127C080918000E2
:1022B000877F809380000E944A112C2F30E0AFEF7F
:1022C000BFEF0E943A2C23E030E040E050E00E9453
:1022D000032CC9012C3764E13607A8F469E070E0EB
:1022E0000E94DB2B70938D0060938C00CF91FF9048
:1022F000EF90DF90CF900895C3E0809180008860D8
:1023000080938000DACF2A50374D4F4F5F4F942F84
:10231000832F722F662725EF38E241E050E00E94BC
:10232000032C69017A01CA01B9010E94B12B9B01FA
:10233000AC01C701B6010E94B12B672F782F892FFE
:1023400099276115710521E08207910559F66FEF14
:102350007FEFC8CF08950E9447118AE080938000E4
:1023600089E1809381008FEF9FEF909387008093A6
:1023700086000C944E106A9A4EB14B7F5EB1546049
:10238000EFB7F8949B01220F331F260F371F280F3A
:10239000391F2817390741F4EFBF8FE594E0019703
:1023A000F1F700C000000895DC016D91CD0178E0E7
:1023B0005EB9000000C067FF4EB9660F000000C0A4
:1023C00000C000C04EB900C07A9591F7E2CF82E21A
:1023D00090E00E94CC2C803289F483E290E00E944D
:1023E000CC2C823159F484E290E00E94CC2C91E014
:1023F000863109F090E0892F8170089580E0FCCF4C
:10240000CF93C82F6FEF811160E282E290E00E94CB
:10241000E02C6FEFC11162E183E290E00E94E02CBA
:102420006FEFC11166E184E290E0CF910C94E02C53
:1024300080E00E9400120C942322089585E290E02F
:102440000E94CC2C682F70E090E080E0089585E237
:1024500090E00C94E02C0E941D120E94E711811163
:102460000CC060E070E0CB010E9427120E9415149E
:102470000E94FF1481E00C9400120895CF93FB0199
:10248000C281CC2309F19C0122513F452031310505
:1024900020F582510E940F15C0E08C2FCF91089536
:1024A00081E00E94EF1F43E062E081E00E94CD04E2
:1024B000F3CF81E00E94102043E062E081E00E94BF
:1024C000CD04EBCF82E0F6CF8031FFE59F0789F3A3
:1024D00081319F45B9F3C1E0E0CF8031EFE59E0740
:1024E000F9F281319F45C9F682E0DBCF2FEFFC0185
:1024F00020830895CF93DF93EC018881893029F000
:102500008A3079F0DF91CF9108950E9448102FEF23
:10251000829FC001112463E070E00E94DB2B69837D
:10252000F1CF1982EFCFFC012081293061F4818144
:10253000F3E08F9FC00111246FEF70E00E94DB2B4E
:10254000862F0C94F8100895CF93DF93EC018881C7
:102550008138A9F028F4803871F0DF91CF91089587
:10256000823881F08338C9F70E94C40989830E94A8
:10257000C7098A83F2CF0E94CA098983EECF0E94DD
:102580007909FBCF0E94AF09F8CFCF93DF93EC011D
:1025900088818138E1F028F4803869F0DF91CF91AB
:1025A0000895823811F18338C9F70E94CA09482F6B
:1025B0006A81898108C0D9810E94C709C82F0E94F9
:1025C000C4094D2F6C2FDF91CF910C94700B898132
:1025D0000E94CE0E8981811104C0DF91CF910C94AD
:1025E0003F0EDF91CF910C94040F8981DF91CF9141
:1025F0000C94C109EF92FF920F931F93CF93DF9337
:10260000EC01E62EDC01ED918D01E150E33108F0A3
:10261000C9C0F0E0E75BF24D0C94252C198289E0EB
:102620008A836E2DCE01DF91CF911F910F91FF9084
:10263000EF900C94E4248981823069F0833071F04A
:102640008130E1F40E94DB230E942B2C6A837B8380
:102650008C839D83E6CF0E941E12F6CF8E01F12C53
:102660008F2D0E944C07F801828373836483F39457
:102670000D5F1F4FF6E0FF12F3CFD3CF6E2DCE01CB
:102680000E947612CECF89818230C1F76A817B8128
:102690008C819D810E942B2C0E942712C2CF4B81DE
:1026A0006A8189810E94E7139827892798279D834B
:1026B0008C83B7CF2C813D813227232732274B8152
:1026C0006A8189810E940014ACCF0E941514A9CFA1
:1026D000CD010E949312C8010E94C512A2CFCD0164
:1026E0000E947A12C8010E94A4129BCF0E9444103B
:1026F0000E945F0996CF0E94AA14898392CF0E94FC
:10270000AC149827892798279A8389838ACF6B816D
:1027100070E089819A81AE014C5F5F4F98278927CD
:1027200098270E94AF147DCF6B8170E089819A81D8
:10273000AE014C5F5F4F9827892798270E94D514D8
:1027400070CF0E94FF146DCF0E94D513D6CF6B813E
:1027500070E089819A81AE014C5F5F4F982789278D
:1027600098270E944D145DCF6B8170E089819A811A
:10277000AE014C5F5F4F9827892798270E947314FA
:1027800050CF0E9418124DCF0E94E4242FEF81EE0B
:1027900094E0215080409040E1F700C000000E948A
:1027A0001A243FCF8FEF88833CCF84E0089550E018
:1027B000440F551F92E2699F400D511D11249CEC5E
:1027C000899F400D511D1124CA01869608950F93CB
:1027D0001F93CF93DF930E94D7138C010E94CC2CC0
:1027E000C82FD0E0DC2FCC27C80101960E94CC2C4A
:1027F0009E01282BC901DF91CF911F910F91089560
:102800000F931F93CF93DF93122F032F0E94D713A1
:10281000EC01602F0E94E02C612FCE010196DF9128
:10282000CF911F910F910C94E02CAF92BF92CF9259
:10283000DF92EF92FF921F93CF93DF938CEAC82E23
:1028400080E0D82ED0E07601C0E014C0F5012591DB
:102850003491412F6C2F8D2F0E94001482E0A80E1E
:10286000B11C1F5F113191F782E2E80EF11CCF5FBE
:10287000C63019F0570110E0E9CFDF5F8CECC80ECD
:10288000D11CD43001F7DF91CF911F91FF90EF90D1
:10289000DF90CF90BF90AF900895EF92FF920F938B
:1028A0001F93CF93DF93EC018A017C01E60EF71EA4
:1028B000CE018696CE15DF0539F4DF91CF911F91B9
:1028C0000F91FF90EF900895C03323E0D20740F4BA
:1028D0000E94CC2CF80180830F5F1F4F2196E8CF18
:1028E000F8011082F9CFCF92DF92EF92FF920F930F
:1028F0001F93CF93DF937C016A018C01060F171F92
:10290000EC01CE018696C017D10749F4DF91CF9133
:102910001F910F91FF90EF90DF90CF900895C033FB
:1029200023E0D20740F4FE01EE19FF09EC0DFD1D76
:1029300060810E94E02C2196E4CF462F843038F449
:10294000763028F4613118F4672F0C94E71390E087
:1029500080E0089580E108958AEA90E00895EF927A
:10296000FF920F931F93CF93DF93EC018A017C01B9
:10297000E60EF71ECE018A5A9C4FCE15DF0539F4BC
:10298000DF91CF911F910F91FF90EF900895CA3A78
:10299000D10540F40E94CC2CF80180830F5F1F4FBB
:1029A0002196E8CFF8011082F9CFCF92DF92EF9213
:1029B000FF920F931F93CF93DF937C016A018C01E9
:1029C000060F171FEC01CE018A5A9C4FC017D10782
:1029D00049F4DF91CF911F910F91FF90EF90DF901D
:1029E000CF900895CA3AD10540F4FE01EE19FF09CF
:1029F000EC0DFD1D60810E94E02C2196E4CFCF9369
:102A0000DF93C6E5D3E060E0CE010E94E02C219682
:102A1000C11584E0D807B9F7DF91CF910895DF920F
:102A2000EF92FF920F931F93CF93DF9300D000D0CC
:102A3000CDB7DEB7F82E8FE08F1540F08FEF93E023
:102A40000E94CC2C06E513E08823C1F00F900F9074
:102A50000F900F90DF91CF911F910F91FF90EF900A
:102A6000DF900895011584E0180781F3C8010E94E2
:102A7000CC2C811101C0FA940F5F1F4FF110F2CFDF
:102A800019821A821B821C82DD24D39478018FEF75
:102A9000E81AF80AC8010E94CC2C89831A8288237C
:102AA000A9F29FEF980F933078F48A83D9820E5F52
:102AB0001F4FC7010E94CC2C8B83882339F2CE0193
:102AC00001960E947604E2CF8701F9CFAF92BF92C0
:102AD000CF92DF92EF92FF920F931F93CF93DF93EA
:102AE0007C015B01C42FD22FFC0182818823F9F085
:102AF000409302020E94CF23909301028093000230
:102B000080E28C0F883008F061C0C77081E001C09E
:102B1000880FCA95EAF7DF91CF911F910F91FF902F
:102B2000EF90DF90CF90BF90AF900C9485191091EB
:102B30000202141340C080910002909101020E9491
:102B4000E7236C01B701C5010E94681EC816D906AB
:102B500090F5C0E2CD0F1D17B9F080E2810F8830EB
:102B600040F4177081E001C0880F1A95EAF70E94BF
:102B70008C19C83048F481E09D2F977001C0880FF0
:102B80009A95EAF70E948519802F0E947219C83021
:102B9000E8F4D77081E001C0880FDA95EAF7DF9199
:102BA000CF911F910F91FF90EF90DF90CF90BF904A
:102BB000AF900C948C1980E28C0F883038F4C77079
:102BC00081E001C0880FCA95EAF7E9CFDF91CF9184
:102BD0001F910F91FF90EF90DF90CF90BF90AF903B
:102BE00008950F939C01CB01233F4CE5340759F125
:102BF000A8F4283DFCE53F0701F1293D4CE53407E9
:102C0000D1F1273D3C4591F406E221EE41EE67ED1E
:102C10007CE50E94661580E00F910895253FFCE554
:102C20003F07E9F0B0F0263F3C45F9F0FC01828116
:102C3000882339F110920202EFCF07E225EE45EE2C
:102C400068ED7CE5E6CF06E221EE40EE63EF7CE541
:102C5000E0CF07E225EE44EE64EF7CE5DACF06E252
:102C600021EE42EE65EF7CE5D4CF07E225EE46EE9D
:102C700066EF7CE5CECF08E221E045EE69ED7CE52C
:102C8000C8CF81E0C9CFCF93DF93EC01FB018281F4
:102C9000882309F419C1C230FCE5DF07C0F1C63151
:102CA0009CE5D90730F09E012A5F3C45293031056B
:102CB00070F50E943C2290930A0380930903C0316F
:102CC000ECE5DE0709F4CFC008F05BC0C8308CE546
:102CD000D80709F4B6C088F5C430ECE5DE0709F47E
:102CE000A8C0C0F4C2308CE5D80709F49CC080911C
:102CF00009038260C330DC4509F498C08091090360
:102D000090910A030E944A220E94F21B80E0DF9108
:102D1000CF910895809109038061C630ECE5DE070C
:102D200009F484C0809109038860C730DC4508F449
:102D30007DC080910903806279C0CC308CE5D807D2
:102D400009F489C070F4809109038C60CA30ECE505
:102D5000DE0709F46BC008F478C0809109038E7F08
:102D600065C0CE308CE5D80709F479C0809109039D
:102D70008B7FCF30DC4508F459C0809109038F7EEA
:102D800055C0CB3FECE5DE0709F457C030F5C33141
:102D90008CE5D80709F46FC078F4C131ECE5DE07A3
:102DA00009F465C0C231DC4509F0A8CF0E94F21BCE
:102DB000809109038F773AC0C5318CE5D80709F4B3
:102DC00062C008F476C080910A038160CA3FDC4586
:102DD00009F094CF80930A0391CFCF3FFCE5DF0742
:102DE00009F44DC088F480910A038D7FCD3F9CE5A6
:102DF000D90781F380910A038E7FCE3FDC4550F3E3
:102E000080910A038360E6CFC130FDE5DF0709F456
:102E100059C008F444C080E0C230DD4509F06ECFEF
:102E20000E94D1226BCF80910903816080930903B6
:102E300065CF809109038460F9CF80910A03826095
:102E4000C9CF809109038064F1CF0E94F21B809169
:102E500009038068EBCF809109038D7FE7CF8091D4
:102E60000903877FE3CF809109038F7DDFCF8091B6
:102E700009038F7BDBCF80910903837FD7CF8091BC
:102E80000A038C7FA7CF8091090382FB992790F9D1
:102E900021E0922790FB82F990FB83F9C7CF8091C4
:102EA0000A03982F909591708E7F892B90FB81F962
:102EB00091CF0E94F21B90910903892F97FB87F90C
:102EC0008058B4CF81E0ACCF81E021CFCF93DF93A6
:102ED000EB0186319C4511F50E9474219A8199235A
:102EE00099F08A7A91E009F490E0909303028111BD
:102EF00009C089E20E944F210E94C02180E0DF9139
:102F0000CF91089585E3F6CF80910302811104C02B
:102F100089E20E945621F0CF85E3FBCF81E0EFCF1D
:102F200090930902809308020895E0910802F091BD
:102F30000902309721F00190F081E02D099480E0A2
:102F40000895E0910802F0910902309721F0028083
:102F5000F381E02D09940895209106023091070233
:102F60002817390771F09093070280930602E091C9
:102F70000802F0910902309721F00680F781E02DD8
:102F80000994089520910402309105022817390709
:102F900071F09093050280930402E0910802F09191
:102FA0000902309721F00084F185E02D09940895FD
:102FB00085B7806885BF85B7806885BF0895089507
:102FC00008950C94DF1708950C94E3170E94D81706
:102FD0000E94E0170C94E11781E008950C94EC171F
:102FE0000E94C6230E945C070E942B120E94572455
:102FF0000E944E100E94D10E0C94E4174F925F92E3
:103000006F927F929F92AF92BF92CF92DF92EF9298
:10301000FF920F931F93CF93DF93CDB7DEB72A971D
:103020000FB6F894DEBF0FBECDBF0E94A8070E9466
:10303000EE17882309F492C04BE0A42E42E0B42E90
:1030400010E000E0902E802F0E944C072B013C01E5
:10305000F501C190D190E190F1905F01C414D504C5
:10306000E604F70409F474C08091B20281FD0E9465
:103070005707B701A601442555256625772520E089
:10308000C12CD12C7601C394DB01CA018C219D2176
:10309000AE21BF21892B8A2B8B2B09F451C02E83A3
:1030A0009F824C205D206E207F2081E045284628AD
:1030B000472809F480E088870E94CF238160782F19
:1030C0009A8789874E815F8168858A850E94D51895
:1030D000000F111F000F111FF801E55FFD4F8081E8
:1030E0009181A281B3818C259D25AE25BF2580834A
:1030F0009183A283B3830E940F0F0E94AA110E94A2
:10310000951790910A028917D1F10E949517809323
:103110000A022A960FB6F894DEBF0FBECDBFDF912C
:10312000CF911F910F91FF90EF90DF90CF90BF90C4
:10313000AF909F907F906F905F904F900C94500550
:103140002F5FCC0CDD1CEE1CFF1C213109F09CCF45
:103150000F5F1F4F0630110509F074CF8FEF898381
:103160008A831B820E94CF238160782F9D838C836A
:1031700049815A816B818D810E94D518BCCF2A96D6
:103180000FB6F894DEBF0FBECDBFDF91CF911F9178
:103190000F91FF90EF90DF90CF90BF90AF909F90F6
:1031A0007F906F905F904F900895CF93DF93CDB74E
:1031B000DEB72B970FB6F894DEBF0FBECDBF4F839F
:1031C000588769877A878B871E821D8285E0FE017A
:1031D0003796DE01119601900D928A95E1F74981AB
:1031E0005A816B817C818D819E812B960FB6F894DC
:1031F000DEBF0FBECDBFDF91CF910C946B1EFC01E3
:10320000808191810C942121CF93C82F882309F4C8
:103210003FC08CEF8C0F813AA0F46C2F8091170186
:10322000909118010E94E822882329F08C2F0E9497
:1032300056210E94C0218C2F0E944F21CF910C94C7
:10324000C02180E28C0F883048F4C77081E001C053
:10325000880FCA95EAF70E947721F0CFEBE5EC0FD3
:10326000E33040F4F0E0EB53FE4F808190E0CF91EB
:103270000C94AC17C85AC73158F4EC2FF0E0EE0F9D
:10328000FF1FE956FE4F80819181CF910C94C217A8
:10329000CF910895882329F19CEF980F913A20F45B
:1032A0000E9456210C94C02190E2980F983050F45F
:1032B000877091E001C0990F8A95EAF7892F0E94E3
:1032C0007D21F0CF9BE5980F933020F490E080E0D3
:1032D0000C94AC17885A873120F490E080E00C946D
:1032E000C2170895CF93C82F0E940419C93349F417
:1032F0002FEF87EE93E0215080409040E1F700C02F
:1033000000008C2FCF910C944A19882321F00E9441
:1033100077210C94C0210895882321F00E947D21FB
:103320000C94C0210895BF92CF92DF92EF92FF924A
:103330000F931F93CF93DF936C01D62FC72FFC0100
:10334000058102950F70128111110E9494210E9433
:103350006D21E82E882391F01123D1F08C2F807FEE
:10336000803421F080E28D0F883090F082E00E945E
:103370000B220E946D2191E0E82EE926BC2EB2942A
:103380009FE0B922EB2DF0E0E45AF24D0C94252C8D
:10339000E12CF4CF0C2F0F70C07F11F00295007F4D
:1033A0001123A9F0002359F080E28D0F883010F02E
:1033B000D11109C0802F0E9477210E94C0218D2F3A
:1033C0000E94041914C0802F0E948721F6CF8D2FF0
:1033D0000E944A19002359F080E28D0F883010F0C6
:1033E000D1112CC0802F0E947D210E94C0212B2D45
:1033F0002850330B2430310520F40E9495170E9489
:103400005005EE2009F493C10E94692180FD8FC10F
:10341000F60112820E9463210E94EF1FC6010E94E2
:10342000B81B0E946321DF91CF911F910F91FF90F4
:10343000EF90DF90CF90BF900C941020802F0E94CF
:103440008D21D3CFFC2FFF70FF2EC07FC03219F02B
:10345000F29480EFF822DD2369F0D13049F1112395
:1034600091F1002351F1F601858180FFA8CF8F7083
:10347000858323C0112381F0011106C00E94A7217A
:103480008F290E948519B3CF0130C1F70E94A7216F
:103490008F290E94AD21ABCF011106C00E94B62139
:1034A0008F2D0E948C19A3CF013009F4A0CFF6CF45
:1034B000112329F0063008F09ACF8F2DE2CF053086
:1034C00008F095CFEDCF002359F3D93349F4FFEF3E
:1034D00027EE33E0F15020403040E1F700C000001B
:1034E0008D2F0E944A1983CF8C2F869586958370E5
:1034F00069F0813009F07BCF8D2F9C2F93701111D3
:1035000002C090E080E00E94C21771CF8D2F9C2FE7
:103510009370111102C090E080E00E94AC1767CF59
:103520008C2F837009F041C0111161CF4D2F42954E
:1035300046954770440F440F0D2F0F7010E030E098
:1035400020E0042E04C0000F111F221F331F0A9415
:10355000D2F760E070E0CB01D4FF0FC06FE070E005
:1035600080E090E004C0660F771F881F991F4A957E
:10357000D2F76095709580959095C695C695C37065
:10358000602B712B822B932BC23049F058F4C13041
:1035900019F00E94A11F2BCF0E948F1F28CF0E94DD
:1035A000B31F25CF0E948D1F22CF8695112311F0C6
:1035B0008C2F8170882309F41ACF4D2F42954695A0
:1035C0004770440F440F0D2F0F7010E030E020E0E3
:1035D000042E04C0000F111F221F331F0A94D2F7BC
:1035E00060E070E0CB01D4FF0FC06FE070E080E0DE
:1035F00090E004C0660F771F881F991F4A95D2F785
:103600006095709580959095C695C695C370602B12
:10361000712B822B932BC23049F058F4C13019F032
:103620000E946620E4CE0E945420E1CE0E947820C1
:10363000DECE0E94C91FDBCECF70112329F08C2F64
:103640000E94EF1F8D2F1DCF8D2F0E948C198C2F64
:103650000E941020CCCED23F89F160F4D03FC9F057
:10366000D13F29F1112309F442C00111A8CE8C2FBA
:103670008F7121C0D33F39F1D43FA1F7112369F1F4
:10368000CF718C2F0E94EF1F63E08C2F0E94F621D8
:10369000AECE112341F0053008F0A9CE8C2F8F71EA
:1036A0000E943320A4CE063008F0A1CEF7CF8C2F95
:1036B0008F71112369F20E94EF1F99CE8C2F8F71A9
:1036C0001123C9F3C5CF112329F08C2F8F710E94CC
:1036D000DA1F8DCE0E94D51F8ACE81E00E940B2278
:1036E000023008F484CE82E00E940B2280CE0023B8
:1036F00059F0D93309F0F4CE8FEF97EEE3E0815023
:103700009040E040E1F7EACE8C2F8F71A1CF4C2F93
:103710004F706D2FC6010E9458050E94051F67CE8D
:103720004C2F4F706D2FC6010E945B0560CEDF915C
:10373000CF911F910F91FF90EF90DF90CF90BF90AE
:1037400008950F931F93CF93DF93EC0168817981E4
:103750008A810E942B218C010E948A200E948C1F4A
:10376000B801CE01DF91CF911F910F910C94931965
:10377000CF93DF93EC018B819C81892B29F0888189
:10378000998189238F3F59F4DF91CF910895CE011C
:103790000E94A11BCE01DF91CF910C94B703CE0103
:1037A0000E94FD048111F3CF0E946D21882361F3F3
:1037B0008A81882349F382E0DF91CF910C940B2218
:1037C0000E9494210E94A4210E94C02190E080E0E8
:1037D0000E94AC1790E080E00C94C2170E945D211B
:1037E0000C94E01B0E9484210C94EE1BE92FE295BF
:1037F000EF70E250EE3070F4F0E0E459F24D0C94CA
:10380000252C803F19F020F4883E20F481E00895B3
:10381000843FE1F380E00895883EC0F3813FD1F713
:10382000F5CF93FB882780F908950E9421210C94FD
:10383000F61BCF93DF9300D000D00F92CDB7DEB749
:103840000F900F900F900F900F90DF91CF910895F0
:10385000CF93DF9300D000D000D0CDB7DEB726964F
:103860000FB6F894DEBF0FBECDBFDF91CF910895A4
:103870001F93CF93DF93C091240216E0809125021D
:103880008C1304C0DF91CF911F910895D0E01C9F4D
:10389000F0011D9FF00D1124EA5DFD4F4081518123
:1038A00062817381848195810E94281C2196C77052
:1038B000E5CF4091560250915702609158027091A5
:1038C000590280915A0290915B020C94281C1F931C
:1038D000CF93DF9380915B02807FA9F4809158029F
:1038E000882389F080912402C091250260915602BC
:1038F00070915702A0915902B0915A02D62FD72346
:1039000016E0C81304C0DF91CF911F91089590E095
:10391000109711F0DF3F19F401968770F2CF189FCE
:103920009001199F300D1124F901EA5DFD4F41818D
:103930004713F2CF40814613EFCF42814111ECCFC4
:10394000438154814A1B5B0B483C510528F7809109
:103950005B028F70806180935B02F901E55DFD4F32
:1039600080818F708061808386E592E00E94B81B21
:10397000DF91CF911F910C94381CAF92BF92CF92E0
:10398000DF92EF92FF920F931F93CF93DF93CDB708
:10399000DEB761970FB6F894DEBF0FBECDBF8C01C6
:1039A00085E0F801DE011D9601900D928A95E1F700
:1039B000F80140815181E28086E5C82E82E0D82E50
:1039C0006091590270915A026115710509F461C143
:1039D0009091560220915702892F82238F3F09F43C
:1039E00058C1A380B480F0905802F501E61BF70B94
:1039F000FF2009F4FCC080915B02382F307FE83C47
:103A0000F10508F0B2C0311179C0FE2C251323C096
:103A1000941321C0E1101FC08F70806180935B02FE
:103A20000E94591CC6010E94B81B80915B02F801DC
:103A300085838F2D61960FB6F894DEBF0FBECDBF84
:103A4000DF91CF911F910F91FF90EF90DF90CF907A
:103A5000BF90AF900895AB2829F0842F85238F3F26
:103A600009F033C180E0F82FF170DF2E80FF3CC0F9
:103A7000809124022091250236E0821315C04D87E3
:103A80005E878D859E850E942121292F22952F708A
:103A90002230F0F0243018F59F70F1F0F801958194
:103AA000907FD1F4D12C1EC090E0389FF001399F57
:103AB000F00D1124EA5DFD4F6181651306C0608140
:103AC000641303C062816E110FC001968770D5CF59
:103AD0009F7011F0882331F3805E883018F3C8019D
:103AE0000E94B81BFD2CA5CFEE2009F4A2CF809137
:103AF0005B02816080935B02F12C9BCF251306C093
:103B0000941304C0F801EE2009F48DC04D875E8740
:103B10008D859E850E94151C882319F1EE2009F1E0
:103B200080915B02803270F02091560230915702F2
:103B300038872F831986BB86AA868C87CE01079685
:103B40000E94B81B86E0F801A6E5B2E001900D9254
:103B50008A95E1F70E94671C0E94591CFF24F39488
:103B600068CFC8010E94B81BF9CF311113C07A2D5C
:103B7000B98AA88A6E2D89890E94191C86E592E06F
:103B80000E94B81B86E0F60111928A95E9F70E941F
:103B9000591CB2CF25130FC094130DC0E1100BC0F8
:103BA000F8018583C8010E94B81B86E0F6011192D6
:103BB0008A95E9F73ECF4D875E878D859E850E9469
:103BC000151C882371F2EE2061F280915B02803235
:103BD00008F4B8CF20915602309157023A832983D6
:103BE0001B82BD82AC828E83CE010196A9CFE83CB8
:103BF000F10508F041C0FE2CEE2009F4B2CF2513E8
:103C00002AC0941328C080915B0280FD1BC0982FAE
:103C1000907FC1F0F8018583903F31F0982F907F1D
:103C2000905F8F70892B8583C8010E94B81B86E046
:103C3000F801A6E5B2E001900D928A95E1F70E94A5
:103C4000591CF7CE86E0F801A6E5B2E001900D928E
:103C50008A95E1F7EECE4D875E878D859E850E9421
:103C6000151C81116FCF80915B02816080935B0294
:103C7000C8010E94B81BDDCE7A2DB98AA88A6E2DA4
:103C800089890E94191C86E0F60111928A95E9F74C
:103C9000D6CFEE2009F465CF4D875E878D859E8552
:103CA0000E94151CF82E882309F45BCF86E0F801EA
:103CB000A6E5B2E001900D928A95E1F786E592E0E3
:103CC0000E94FF180E94671CBACF81E08E25CBCEE0
:103CD00088EC90E008951F93CF93DF93CDB7DEB7C4
:103CE0002C970FB6F894DEBF0FBECDBF4F83588719
:103CF00069877A878B879C87CE0107960E94BD1CB7
:103D0000882369F08A859B85892B39F04F815885F6
:103D1000842F85238F3F09F071C016E05FC086E0D5
:103D2000FE013796DE01119601900D928A95E1F71A
:103D30008A859B85892B89F38F81988589238F3F7D
:103D400061F32091250230E0C9010196877099271F
:103D5000409124024817190671F40E94F21B109238
:103D600025021092240286E0E6E5F2E0DF011D92D2
:103D70008A95E9F7D2CF96E0929FD001939FB00D3C
:103D80001124AA5DBD4FFE01319601900D929A95C6
:103D9000E1F7809325020E94381CBFCF819FC001AC
:103DA00011248A5D9D4F0E94BD1C8823E9F0E0919B
:103DB00024021E9FF0011124EA5DFD4F40815181D4
:103DC00062817381848195810E94281C80912402E4
:103DD00090E00196877099278093240280912402B5
:103DE000909125028913DACF2C960FB6F894DEBF96
:103DF0000FBECDBFDF91CF911F91089569857A8560
:103E00008B859C850E94281C88CFEF92FF920F9390
:103E10001F93CF93DF938C01892B81F0F12CEE243B
:103E2000E394E8012196F8018491843770F484309A
:103E300008F05FC08130B1F08230A1F1DF91CF9105
:103E40001F910F91FF90EF900895853709F44CC0B2
:103E500008F43DC09CE7980F903780F78F770E9459
:103E60004A1949C00E5F1F4FFE01849190E2980FDE
:103E7000983060F48770FE2D01C0FF0F8A95EAF735
:103E80008F2F0E9497210E94C02102C00E94041916
:103E90008F2D815030F2EFE9FFE03197F1F700C04C
:103EA0000000F7CF0E5F1F4FFE01849190E2980F44
:103EB000983050F48770FE2D01C0FF0F8A95EAF705
:103EC0008F2F0E949D21DFCF0E944A19E1CF0E5F04
:103ED0001F4FFE01C491C150D8F28FE99FE00197B6
:103EE000F1F700C00000F7CF0E5F1F4FFE01F49006
:103EF000CFCF0E9404198E01CBCF08950C947D1F63
:103F00000E947E1F6093A1027093A2028093A3027D
:103F10009093A4020C94E01B08950C94801F0F93BF
:103F20001F930091A1021091A2022091A30230914F
:103F3000A402602B712B822B932B1F910F910C9459
:103F4000801F0F931F930091A1021091A202209154
:103F5000A3023091A40260237123822393231F9133
:103F60000F910C94801F0F931F930091A102109149
:103F7000A2022091A3023091A40260277127822718
:103F800093271F910F910C94801F0C947D1F0C940C
:103F9000C51F0E94C71F60939D0270939E0280936D
:103FA0009F029093A0020C94E01B60E070E0CB01B4
:103FB0000C94C91F0F931F9341E050E060E070E044
:103FC0008A019B0104C0000F111F221F331F8A9515
:103FD000D2F7C901B8011F910F910C94C91F0F931B
:103FE0001F9341E050E060E070E004C0440F551FB3
:103FF000661F771F8A95D2F780919D0290919E024D
:10400000A0919F02B091A0028A019B01082B192B5D
:104010002A2B3B2BC901B8011F910F910C94C91F8A
:104020000F931F9341E050E060E070E004C0440F44
:10403000551F661F771F8A95D2F7CB01BA0160958D
:1040400070958095909500919D0210919E0220910F
:104050009F023091A00260237123822393231F913A
:104060000F910C94C91F0F931F9341E050E060E043
:1040700070E004C0440F551F661F771F8A95D2F762
:1040800080919D0290919E02A0919F02B091A0020A
:104090008A019B01082719272A273B27C901B80154
:1040A0001F910F910C94C91F0F931F9300919D02B4
:1040B00010919E0220919F023091A002602B712BE3
:1040C000822B932B1F910F910C94C91F0F931F9359
:1040D00000919D0210919E0220919F023091A002BA
:1040E00060237123822393231F910F910C94C91F86
:1040F0000F931F9300919D0210919E0220919F02A9
:104100003091A00260277127822793271F910F917A
:104110000C94C91F089521E1929F800D1124982FBE
:10412000977041E001C0440F9A95EAF7869586950D
:10413000869595E0899FF0011124E45AFD4F90E0A7
:1041400080E070E05191DF0111979B01082E02C0C1
:10415000369527950A94E2F7217021952527242387
:1041600025272C9301968530910561F7089521E16B
:10417000929F800D1124982F97708695869586952D
:1041800025E0829FF0011124E45AFD4F50E040E009
:1041900080E0219130E0092E02C0369527950A94DF
:1041A000E2F721703327042E01C0220F0A94EAF7A8
:1041B000822B4F5F5F4F4530510559F70895BF92ED
:1041C000CF92DF92EF92FF920F931F93CF93DF93E3
:1041D0008C01C0909D02D0909E02E0909F02F090D2
:1041E000A0028091A1029091A202A091A302B0919D
:1041F000A402C82AD92AEA2AFB2ACFE1D0E0BC2EA1
:10420000D701C6010C2E04C0B695A7959795879542
:104210000A94D2F780FD0EC0219788F7B12C8B2D20
:10422000DF91CF911F910F91FF90EF90DF90CF9092
:10423000BF900895B8018C2F0E946405019761F327
:10424000EECFCF93DF93EC010E94DF20BE01DF9120
:10425000CF910C9464051F93CF93DF93EB01909162
:104260002302992331F0CB01DF91CF911F910C9460
:104270002121882379F0CB010E94DF20182F682F9D
:10428000CE010E948B20BE01812FDF91CF911F9123
:104290000C946405CB010E94B720182FF4CF682F2F
:1042A00080911701909118010C941E23682F809122
:1042B0001701909118010C9420238091170190917F
:1042C00018010C9422238091A502859585958595EA
:1042D00008958091A502877008959091A502977026
:1042E00081E009F480E008958091B10208959091F1
:1042F000B102892B8093B102089580959091B1020B
:1043000098239093B10208951092B102089590916C
:10431000B002892B8093B002089580959091B002ED
:1043200098239093B00208951092B002089590914E
:10433000AF02892B8093AF02089580959091AF02D0
:1043400098239093AF0208951092AF020895809140
:10435000A602089508950C94AA219091A602981798
:1043600021F08093A6020C94AB2108958091A602BF
:10437000882329F01092A60280E00C94AB210895C6
:10438000E0911701F09118018091B1028083E091D2
:104390001701F091180180819091B002892B8083E0
:1043A000E0911701F091180180819091AF02892B63
:1043B00080839091A602992381F0E0911701F091FA
:1043C00018018081892B80838091170190911801B9
:1043D0000E94D62281110E94B621809117019091EE
:1043E00018010C94A11708950C94F32198E0899F6B
:1043F00090011124622B6093A5020E94EF1F80910F
:10440000A5028595859585950C94F4211092A502B9
:1044100080E00C94F4219091A502809589238093EB
:10442000A502282F277071F4282F082E000C330BBB
:104430009217130639F08595859585950E94102071
:104440000C94062208956FEF7FEF90E080E00C94CB
:10445000FE2C90E080E00E94DA2C21E08C3E9E4F02
:1044600009F020E0822F089582E090E00C94CC2C9B
:1044700083E090E00C94CC2CCF9384E090E00E94F9
:10448000CC2CC82F81E290E00E94CC2C982F8C2F4E
:10449000CF910895CF93C92F682F84E090E00E94B8
:1044A000E02C6C2F81E290E0CF910C94E02C86E020
:1044B00090E00C94CC2C682F86E090E00C94E02CDB
:1044C000AB01BC018FE090E00C94F22CAB01BC017D
:1044D00083E190E00C94F22C60E070E0CB010C944E
:1044E000662260E070E0CB010E9460220C946C2296
:1044F0006CEE7EEF90E080E00E94FE2C60E082E0B7
:1045000090E00E94E02C60E083E090E00E94E02CCC
:104510001092A1021092A2021092A3021092A40281
:1045200060E084E090E00E94E02C60E081E290E0B6
:104530000E94E02C60E085E090E00E94E02C60E0CA
:1045400086E090E00E94E02C6FEF87E090E00E9410
:10455000E02C40E050E0BA0188E090E00E94F22CAC
:1045600060E08DE090E00E94E02C40E050E0BA0175
:1045700088E190E00E94F22C60E087E190E00E94E8
:10458000E02C40E050E0BA018CE190E00E94F22C77
:1045900060E080E290E00E94E02C0C9471220C9488
:1045A0007822682F8EE090E00C94E02C9C012E5F26
:1045B0003F4FAC01485F5F4F80E02417350709F497
:1045C0000895F90191919F019923B9F38F5FF5CF78
:1045D000662349F0FC01329608962191261729F0AE
:1045E000E817F907D1F780E0089581E008959C016C
:1045F000FC0132969FEF80E04191461751F09F3FBA
:1046000019F4411101C0982F8F5F8630A9F79F3FA1
:1046100009F40895290F311D97FD3A95F901628338
:104620000895FC01329608962191261303C0DF01FC
:1046300011971C92E817F907B9F708950C94F7221F
:104640000C941123029626E0FC0111922A95E9F7B9
:104650000895089508950C942A230E942B23809195
:104660000F03843009F43CC01092B30288E190E05B
:1046700020E40FB6F894A895809360000FBE2093B5
:10468000600080E00E944C1180E00E9450050E9472
:104690000C0F8091B40281110AC081E08093B402B2
:1046A0008091F00281708093B5020E943F0E0E94BB
:1046B0002B2383B7817F846083BF83B7816083BFEF
:1046C0007894889583B78E7F83BF0FB6F894A895AA
:1046D00080916000886180936000109260000FBE3E
:1046E00008950895CF930E9429230E94A8070E944D
:1046F0007123C0E08C2F0E944C07672B682B692B1D
:1047000031F4CF5FC630B1F780E0CF91089581E0FA
:10471000FCCF08950C9489230E94F21B0E944E1036
:104720000E9495170E9450051092B4028091B50224
:1047300081110E94040F0E94510E0C948A231F9233
:104740001FB61F9211248F939F93AF93BF938091B5
:10475000B302811113C08091050390910603A091CB
:104760000703B09108034196A11DB11D8093050375
:1047700090930603A0930703B0930803BF91AF91F2
:104780009F918F911F901FBE1F90189582E084BD4E
:1047900093E095BD9AEF97BD80936E0008952FB773
:1047A000F8948091050390910603A0910703B091BE
:1047B00008032FBF08952FB7F894609105037091F7
:1047C000060380910703909108032FBF08959C0171
:1047D0004FB7F8948091050390910603A0910703C9
:1047E000B09108034FBF821B930B089578941F92DA
:1047F0001FB61F9211248F939F93AF93BF93809105
:10480000050390910603A0910703B0910803019658
:10481000A11DB11D8093050390930603A093070388
:10482000B0930803BF91AF919F918F911F901FBECE
:104830001F90189581E08093E00080E28093D8007B
:104840001092C9008FE19EE40197F1F700C00000CB
:1048500087E090EBDC018093180390931903A093F9
:104860001A03B0931B0388E19CE00FB6F894A89557
:10487000809360000FBE90936000FFCF0C941812DD
:104880000E94A8072FEF86E791E0215080409040DA
:10489000E1F700C000000E94A80780E00E944C07DA
:1048A00060FF04C00E943E240C941A2408950E94C4
:1048B0002922811102C00E94CF220E9434228093BB
:1048C000B2020E943C2290930A03809309030E9443
:1048D0003822682F70E090E080E00E948D1F609188
:1048E0009D0270919E0280919F029091A0020C9473
:1048F000C71F8091BE0208950895CF93DF9300D023
:104900000F92CDB7DEB790910F03943011F58983E4
:104910007B836A839093E9008FEF9091E800815048
:1049200095FD06C095ED9A95F1F700008111F5CF40
:104930008091E80085FF0DC050E040E063E070E04A
:10494000CE0101960E94D1268091E8008E77809357
:10495000E8000F900F900F90DF91CF910895BC0168
:1049600084E00C947D24BC0183E00C947D24CF93DF
:10497000DF93EC0181E08093E9008FEF9091E800F4
:10498000815095FD06C095ED9A95F1F700008111D3
:10499000F5CF8091E80085FF14C050E040E068E06A
:1049A00070E0CE010E94D1268091E8008E7780933E
:1049B000E80088E0FE01A6EBB2E001900D928A9536
:1049C000E1F7DF91CF910895CF93FC01603221F59B
:1049D00080910F03843001F5C091E900CF702091E0
:1049E000EC00922F917020FD90E8C92B82E080931B
:1049F000E9008091E80080FF0CC050E040E060E2F8
:104A000070E0CF010E94D1268091E8008E778093DC
:104A1000E800CF70C093E900CF91089580910E0314
:104A2000811109C00E94B0280E940D298091E200E6
:104A300084608093E200089510920E030895089513
:104A400008950C948C2342E061EC81E00E942C28B4
:104A500042E261EC84E00E942C2842E261EC82E0B8
:104A60000E942C2842E260EC83E00C942C28809178
:104A70001103833009F461C030F48130D1F1823008
:104A800009F49DC008958A3009F489C08B3009F477
:104A90006FC0893009F050C080911003813209F055
:104AA0004BC08091140390911503009719F0029761
:104AB00009F042C08091E800877F8093E8008091F0
:104AC000E80082FF35C09091F3008091F2000297D8
:104AD00029F48091F1008B7F813021F48091F100E5
:104AE0008093BE028091E8008B778093E8000C945D
:104AF000602880911003813AF9F48091E800877F63
:104B00008093E8008091140390911503892B61F440
:104B100068E086EB92E070E00E946F278091E800E9
:104B20008B778093E800089560E090E080E0F3CF19
:104B300080910F038111C3CF089580911003813AB2
:104B4000D9F78091140390911503892BA9F78091CF
:104B5000E800877F8093E8008091E80080FFFCCF29
:104B6000809123018093F1008091E8008E77BDCF82
:104B700080911003813201F7809114039091150305
:104B8000892BD1F68091E800877F8093E8000E940E
:104B9000602880911203809323010C94F21B809172
:104BA0001003813249F68091E800877F8093E80006
:104BB0000E946028809113038093BF020895809122
:104BC0001003813A09F0B8CF8091E800877F809385
:104BD000E8008091E80080FFFCCF8091BF02C2CF47
:104BE000CDB7DEB7A0970FB6F894DEBF0FBECDBF2E
:104BF00084B7877F84BF0FB6F894A8958091600032
:104C0000886180936000109260000FBE80E890E0A1
:104C10000FB6F89480936100909361000FBE0E94DC
:104C2000E6170E94B0280E940D298091E20084605E
:104C30008093E20078940E94962B0E94F01789E1FD
:104C400091E00E94901713E080910F03853039F1B5
:104C50000E94FE1780910F038430B1F71093E90092
:104C60008091E80082FFF0CF8091E80090E085FF1E
:104C700009C050E040E060E270E0CE0101960E9481
:104C8000202791E08091E8008B778093E8009923BA
:104C9000D9F260E2CE0101960E94FA12D5CF0E94AD
:104CA0002D2380910D03882379F20E94722388239B
:104CB00059F20E94BB26C8CF0C945E26292F3327B9
:104CC0002330310521F168F42130310509F449C060
:104CD0002230310509F44AC090E080E030E020E065
:104CE00029C02132310581F122323105A9F7633023
:104CF000710590F7FB01EE0FFF1FE553FE4F20817A
:104D0000318168537E4FFB01808190E013C0992769
:104D10008130910599F0009741F08230910589F03A
:104D20000397D1F6EEEFF4E002C0E4E3F5E08491FE
:104D300090E09F01FA01318320830895E4E2F5E0D9
:104D4000F6CFE4E0F5E0F3CF6330710528F6660FA7
:104D5000771FFB01EF52FE4F2081318189E090E007
:104D6000E9CF82E190E023E935E0E4CF8BE590E004
:104D700028E335E0DFCF80E189BD82E189BD09B458
:104D800000FEFDCF8091D8008F7D8093D800809168
:104D9000E00082608093E0008091E00081FDFCCF24
:104DA0000895AF92BF92CF92DF92FF920F931F931D
:104DB000CF93DF936C01EB018A010E947F28F82ECC
:104DC000811123C00115110539F0F801808191810D
:104DD000C81BD90BC80ED91EB12CA12C2097A9F045
:104DE0008091E80085FD22C08091E8008E77809355
:104DF000E80001151105A1F0F80180819181A80E4C
:104E0000B91EB182A08285E0F82E8F2DDF91CF915F
:104E10001F910F91FF90DF90CF90BF90AF900895BA
:104E20000E947F288823D1F2F82EEFCFF6018191DE
:104E30006F018093F1002197FFEFAF1ABF0ACECF29
:104E4000AF92BF92CF92DF92FF920F931F93CF93B7
:104E5000DF936C01EB018A010E947F28F82E8111FB
:104E600023C00115110539F0F80180819181C81B1B
:104E7000D90BC80ED91EB12CA12C2097A9F0809176
:104E8000E80085FD22C08091E8008B778093E800E0
:104E900001151105A1F0F80180819181A80EB91EBC
:104EA000B182A08285E0F82E8F2DDF91CF911F91E6
:104EB0000F91FF90DF90CF90BF90AF9008950E9428
:104EC0007F288823D1F2F82EEFCF8091F100F601F0
:104ED00081936F012197FFEFAF1ABF0ACECFFC017C
:104EE000809116039091170386179707A0F061151C
:104EF000710529F49091E8009E779093E80090E086
:104F00006115710551F4911108C08091E80082FF8C
:104F100034C080E00895BC01F2CF80910F03882354
:104F2000C1F18530C1F18091E80083FD30C08091EE
:104F3000E80082FDEACF8091E80080FFE1CF809118
:104F4000F3002091F200382F6115710519F0283017
:104F5000310558F091E02830310509F090E02091BA
:104F6000E8002E772093E800CBCF81918093F10069
:104F7000615071092F5F3F4FE7CF80910F03882366
:104F800041F0853041F08091E80083FFBECF81E0A1
:104F9000089582E0089583E00895FC01809116034E
:104FA0009091170386179707A0F06115710529F4F2
:104FB0008091E8008E778093E80090E0611571059C
:104FC00051F4911108C08091E80082FF35C080E063
:104FD0000895BC01F2CF80910F038823C9F1853079
:104FE000C9F18091E80083FD31C08091E80082FD25
:104FF000EACF8091E80080FFE1CF8091F30020911B
:10500000F200382F6115710519F02830310558F07C
:1050100091E02830310509F090E08091E8008E772A
:105020008093E800CBCF84918093F100319661505A
:1050300071092F5F3F4FE6CF80910F03882341F026
:10504000853041F08091E80083FFBDCF81E0089575
:1050500082E0089583E00895982F973028F08F70AC
:105060008093E90081E008959093E900242F762F42
:1050700050E0981731F07091EC002091ED005091C4
:10508000F00021FD02C09F5FE8CF3091EB003E7F32
:105090003093EB003091ED003D7F3093ED00309187
:1050A000EB0031603093EB007093EC002093ED0047
:1050B0005093F0002091EE0027FDE5CF80E00895A9
:1050C0008091100387FF13C08091E80082FF06C023
:1050D0008091E8008B778093E80004C080910F03F3
:1050E0008111F2CF089580910F038823D9F3809125
:1050F000E80080FFF8CF8091E8008E77ECCF209118
:10510000E4003091E50095E6A9012091EC00822FA2
:10511000817020FF06C08091E80080FF06C080E01B
:1051200008952091E80022FD1AC080910F03882382
:1051300089F0853089F08091EB0085FD0FC02091CA
:10514000E4003091E50042175307F9F29150E1F67F
:1051500084E0089582E0089583E0089581E0089551
:105160000E941E290E942629E0EEF0E080818160E5
:105170008083E8EDF0E080818F77808319BCA7ED14
:10518000B0E08C918E7F8C9380818F7E8083109293
:105190000E0308950F931F93CF93DF930E941E2950
:1051A0000E942629C8EDD0E088818F778883888186
:1051B0008068888388818F7D888319BC10920F0353
:1051C00010920B0310920D0310920C0300EE10E0EE
:1051D000F80180818B7F808388818160888342E0B1
:1051E00060E080E00E942C28E1EEF0E080818E7F7C
:1051F0008083E2EEF0E0808181608083808188603E
:105200008083F80180818E7F80838881806188839C
:10521000DF91CF911F910F910895E8EDF0E080812B
:105220008F7E8083E7EDF0E080818160808384E081
:1052300082BF81E080930E030C94CA28E8EDF0E071
:1052400080818E7F80831092E20008951092DA00B0
:105250001092E10008951F920F920FB60F92112441
:105260002F933F934F935F936F937F938F939F936E
:10527000AF93BF93EF93FF938091E10082FF0BC048
:105280008091E20082FF07C08091E1008B7F8093D4
:10529000E1000E94952B8091DA0080FF19C0809177
:1052A000D80080FF15C08091DA008E7F8093DA00ED
:1052B0008091D90080FF96C080E189BD82E189BDDF
:1052C00009B400FEFDCF81E080930F030E940E25FC
:1052D0008091E10080FF19C08091E20080FF15C03D
:1052E0008091E2008E7F8093E2008091E2008061F5
:1052F0008093E2008091D80080628093D80019BC2E
:1053000085E080930F030E9420258091E10084FFB7
:105310002BC08091E20084FF27C080E189BD82E13B
:1053200089BD89B5982F917080FFFBCF8091D800FF
:105330008F7D8093D8008091E1008F7E8093E10083
:105340008091E2008F7E8093E2008091E200816094
:105350008093E20080910B03882309F449C084E024
:1053600080930F030E9421258091E10083FF29C0D3
:105370008091E20083FF25C08091E100877F8093C8
:10538000E10082E080930F0310920B038091E10013
:105390008E7F8093E1008091E2008E7F8093E20017
:1053A0008091E20080618093E20042E060E080E072
:1053B0000E942C288091F00088608093F0000E9469
:1053C0001F25FF91EF91BF91AF919F918F917F9199
:1053D0006F915F914F913F912F910F900FBE0F9062
:1053E0001F90189519BC10920F030E941C2570CFB6
:1053F0008091E30087FD93E090930F03B3CF1F925A
:105400000F920FB60F9211242F933F934F935F93F8
:105410006F937F938F939F93AF93BF93CF93DF93BC
:10542000EF93FF93D091E900DF708091EC00C82FDB
:10543000C17080FDC0E81092E9008091F000877F84
:105440008093F00078940E94432A1092E9008091A2
:10545000F00088608093F000CD2BCF70C093E900FE
:10546000FF91EF91DF91CF91BF91AF919F918F917C
:105470007F916F915F914F913F912F910F900FBE50
:105480000F901F9018951F93CF93DF93CDB7DEB782
:10549000AA970FB6F894DEBF0FBECDBF80E193E0B0
:1054A0002091F100FC012193CF01F3E088319F07A7
:1054B000B9F70E9437258091E80083FF1EC18091D3
:1054C0001003909111039A3008F017C1E92FF0E012
:1054D000E658F24D0C94252C803899F0823809F06A
:1054E0000CC1809114038F70873008F006C180933F
:1054F000E9008091EB0085FB882780F91092E90094
:1055000006C080910C0390910D03911182609091DF
:10551000E800977F9093E8008093F1001092F100EB
:105520008091E8008E77E5C0882309F4D3C08230EB
:1055300009F0E3C0809112038111D6C08091140359
:105540008F702FEF280F263008F0D7C08093E90026
:105550002091EB0020FFC8C0933031F48091EB0024
:1055600080628093EB00C0C09091EB0090619093BB
:10557000EB0021E030E001C0220F8A95EAF720938A
:10558000EA001092EA008091EB008860EACF811176
:10559000B4C0109112031F778091E3008078812BB3
:1055A0008093E3008091E800877F8093E8000E9469
:1055B00060288091E80080FFFCCF8091E300806844
:1055C0008093E30082E0111183E080930F0395C084
:1055D0008058823008F091C080911203909113039B
:1055E0008C3D23E09207A1F583E08A838AE28983D8
:1055F0004FB7F894DE01139620E03EE051E2E32F2E
:10560000F0E050935700E49120FF03C0E295EF7063
:105610003F5FEF708E2F90E0EA30C0F0C7968D9319
:105620009D932F5F243159F74FBF8091E800877F0A
:105630008093E8006AE270E0CE0101960E946F2735
:105640008091E8008B778093E80057C0C096E7CF41
:105650006091140370911503AE014F5F5F4F0E947C
:105660005C26BC01892B09F448C09091E800977F23
:105670009093E80089819A810E94CD27E1CF8038FC
:10568000E1F58091E800877F8093E80080910B032B
:105690008093F10045CF811130C090911203923078
:1056A00060F58091E800877F8093E80090930B037A
:1056B0000E94602880910B03882311F084E005C0CC
:1056C0008091E30087FDFACF81E080930F030E9471
:1056D000232513C080911203813079F481E0933047
:1056E00009F080E080930D031092E9008091E800BA
:1056F000877F8093E8000E9460288091E80083FF04
:105700000AC08091E800877F8093E8008091EB00D9
:1057100080628093EB00AA960FB6F894DEBF0FBEAE
:10572000CDBFDF91CF911F9108950895CF938091C0
:105730000F038823A1F0C091E900CF709091EC0095
:10574000892F817090FD80E8C82B1092E90080912C
:10575000E80083FD0E94432ACF70C093E900CF91F7
:105760000895DB018F939F930E94502CBF91AF91BE
:10577000A29F800D911DA39F900DB29F900D1124AB
:105780000895991B79E004C0991F961708F0961B9D
:10579000881F7A95C9F78095089587FB082E0626FD
:1057A00087FD819567FD61950E94C12B0EF491954F
:1057B00007FC81950895AA1BBB1B51E107C0AA1FD6
:1057C000BB1FA617B70710F0A61BB70B881F991FA2
:1057D0005A95A9F780959095BC01CD01089597FB46
:1057E000072E16F4009407D077FD09D00E94DB2B1A
:1057F00007FC05D03EF4909581959F4F08957095D4
:1058000061957F4F0895A1E21A2EAA1BBB1BFD01D3
:105810000DC0AA1FBB1FEE1FFF1FA217B307E4078F
:10582000F50720F0A21BB30BE40BF50B661F771FE7
:10583000881F991F1A9469F76095709580959095C7
:105840009B01AC01BD01CF010895EE0FFF1F059034
:10585000F491E02D099469279627692778278727EF
:10586000782708950E943A2C332312F48A1B9B0B4D
:105870000C944B2CA29FB001B39FC001A39F700D4D
:10588000811D1124911DB29F700D811D1124911D48
:1058900008950E943A2CB7FF0895821B930B089538
:1058A0000E943A2CA59F900DB49F900DA49F800D4F
:1058B000911D11240895B7FF0C94502C0E94502C78
:1058C000821B930B08958F929F92AF92BF92CF92BB
:1058D000DF92EF92FF92CF93DF93EC0168817981A1
:1058E0008A819B81611571058105910521F464E22E
:1058F00079ED8BE597E02DE133EF41E050E00E9438
:10590000142D49015A019B01AC01A7EAB1E40E94A0
:10591000502C6B017C01ACEEB4EFA50194010E9408
:105920005E2CDC01CB018C0D9D1DAE1DBF1DB7FF94
:1059300003C00197A109B04888839983AA83BB83D8
:105940009F77DF91CF91FF90EF90DF90CF90BF9046
:10595000AF909F908F9008950E94632C089580E0EF
:1059600091E00E94632C0895B0E0A0E080930001D4
:1059700090930101A0930201B09303010895FC01EB
:105980004150504030F001900616D1F73197CF01C9
:105990000895882799270895F999FECF92BD81BD72
:1059A000F89A992780B50895A6E1B0E044E050E068
:1059B0000C94062DA8E1B0E042E050E00C94062DD6
:1059C000262FF999FECF92BD81BDF89A019700B4B8
:1059D000021639F01FBA20BD0FB6F894FA9AF99A58
:1059E0000FBE08950396272F0E94E12C0E94E02C01
:1059F000252F0E94E12C242F0C94E12C0196272FB7
:105A00000E94E12C0C94E02CDC01CB01FC01F99903
:105A1000FECF06C0F2BDE1BDF89A319600B40D92FA
:105A200041505040B8F70895052E97FB1EF400949E
:105A30000E942B2D57FD07D00E94032C07FC03D09A
:105A40004EF40C942B2D50954095309521953F4F59
:105A50004F4F5F4F089590958095709561957F4F5A
:105A60008F4F9F4F0895F894FFCFEA0FF20FF90F71
:105A7000FE0F031008100D10121017101C1021102B
:105A800026102A102F103210351038103B103D1000
:105A900040100E131B1343134F135A13651368134F
:105AA0006F137613C113C4137B137F1387139413DF
:105AB000A113A413A713B413CA19CA19221A221ABC
:105AC000741AF719F719F719901A1C1B2B1B2B1BAB
:105AD000871BF719F719901B011C011C0A1C0A1CD3
